:1000000000308A0019280000223084008313000881
:10001000031918280530F800F701F70B0D28F80B25
:100020000C282E30F700F70B13281628800B0A280F
:10003000080003081F39830083161F149F141F151F
:100040009F1107309C00831385118312851564303E
:10005000A200042083168511831285116430A2004A
:1000600004208316051183120511831605148312CB
:10007000051C452883168511831285110430A100C3
:10008000FA30A2000420A10B4028831685148312A5
:10009000851C552883160511831205150430A1000F
:1000A000FA30A2000420A10B5028831624286300F4
:02400E00323F3F
:00000001FF
;PIC16F877A
;CRC=DB6A  CREATED="11-mai-19 11:36"
